:020000040800F2
:1000000030050020A1560008A5540008A754000898
:1000100000000000000000000000000000000000E0
:100020000000000000000000000000001B4000086D
:100030000000000000000000A9540008E55400087A
:10004000D34000081F510008275200087F560008BF
:100050008B560008BD560008BF5600081D55000805
:10006000C1560008C3560008C5560008C756000808
:10007000C9560008CB560008CD560008AB540008FE
:10008000CF560008D156000800000000D3560008E3
:10009000D5560008D7560008D9560008DB56000888
:1000A000DD560008DF560008E1560008E356000858
:1000B000F154000800000000E556000800000000B0
:1000C00038B59025ED05802424012100280003F097
:1000D00036FD142003F07DFD2100280003F02DFDE6
:1000E000142003F076FDB548F021018050314180A5
:1000F0002C2181712A21C1712B210172CB2000F0AA
:10010000FDF8392000F026F92C2000F023F900201A
:1001100000F020F9342000F01DF9022000F01AF957
:10012000CF2000F0EBF8002000F014F9C12000F01F
:1001300011F9302000F00EF9E82000F0DFF88520FA
:1001400000F008F9002000F005F9782000F002F92D
:10015000EA2000F0D3F8002000F0FCF8002000F0C6
:10016000F9F8ED2000F0CAF8642000F0F3F803205D
:1001700000F0F0F8122000F0EDF8812000F0EAF82D
:10018000F72000F0BBF8202000F0E4F8C02000F0D9
:10019000B5F8232000F0DEF8C12000F0AFF8102001
:1001A00000F0D8F8C52000F0A9F83E2000F0D2F801
:1001B000282000F0CFF8C72000F0A0F8862000F03B
:1001C000C9F8362000F09AF8482000F0C3F83A2029
:1001D00000F094F8552000F0BDF8B12000F08EF842
:1001E000002000F0B7F8182000F0B4F8B62000F0B6
:1001F00085F8082000F0AEF8822000F0ABF8272048
:1002000000F0A8F8F22000F079F8002000F0A2F841
:10021000262000F073F8012000F09CF8E02000F0A8
:100220006DF80F2000F096F8312000F093F82B20A5
:1002300000F090F80C2000F08DF80E2000F08AF805
:10024000082000F087F84E2000F084F8F12000F03C
:1002500081F8372000F07EF8072000F07BF81020AE
:1002600000F078F8032000F075F80E2000F072F826
:10027000092000F06FF8002000F06CF8E12000F099
:100280003DF8002000F066F80E2000F063F814201E
:1002900000F060F8032000F05DF8112000F05AF83B
:1002A000072000F057F8312000F054F8C12000F08A
:1002B00051F8482000F04EF8082000F04BF80F20CD
:1002C00000F048F80C2000F045F8312000F042F82A
:1002D000362000F03FF80F2000F03CF8112000F02D
:1002E0000DF8782003F075FC292000F007F82C2089
:1002F00000F004F84B4800F063F831BD70B506001B
:100300009024E40580252D022900200003F017FC2D
:100310006909200003F013FCF1B22AE0F8B50700E8
:100320009024E405802636023100200003F007FC0B
:100330007109200003F001FC3B4D390A280003F04D
:1003400009FDF9B2280003F005FD3100200003F09B
:10035000F4FBF1BD70B506009024E40580252D0264
:100360002900200003F0EBFB6909200003F0E5FB06
:1003700031002D4803F0EEFC2900200003F0DDFBE6
:1003800070BD80B50D488079FFF7B8FF01BD70B52D
:1003900005000C00094EF079FFF7B0FF280AFFF7BF
:1003A000D9FFE8B2FFF7D6FF307AFFF7A7FF200AA0
:1003B000FFF7D0FFE0B2FFF7CDFF70BD4C0000208B
:1003C00038B5040000210020FFF7E1FFFFF7D9FF57
:1003D00096256D022000FFF7A1FF6D1EFAD131BDF9
:1003E000F9B581B068468088151A6D1CADB20C0055
:1003F000089F07E03800FFF791FF761CB6B2AE42C7
:10040000F8DB641C68460089A4B2A04208D321002E
:1004100068468088FFF7BBFFFFF7B3FF0026EDE7D4
:10042000F7BD0000FFFF000000300140F3B581B0D0
:1004300012A05101441800270198C11989B20298ED
:1004400080B2FFF7A4FFFFF79CFF022500260A48B1
:1004500021780122B240114201D0808900E0C08998
:10046000FFF75CFF761C082EF1DB641C6D1EEDD1DE
:100470007F1C102FE0DBF7BD4C00002000000400C3
:10048000040004000400FC7F048004400400040015
:1004900090001001FF7F1082104410040000000043
:1004A000FC070408041004080400FCFF00004208D4
:1004B0004208440844104410FC1F00000000008063
:1004C000E64F28202010BF0F20102C20E24F008084
:1004D00024112421E77F2C011001200100000000DD
:1004E0000000FC7F042004200420042004200420B9
:1004F000042004200420FC7F00000000000040785D
:100500004040464048405040C03F40007F004000CF
:10051000C00758184420424040804080000000F04E
:100520000080F89F8888888888888888FF7F880866
:10053000880888088808F81F0000000000000040B4
:10054000024082408240824082408240FE7F0240E0
:1005500002400240C27F02400240004000001800FA
:100560002800081EEA22AC12A802A802AFFFA802C7
:10057000A802AC02EA02083E180020000000007841
:1005800008400840C83F48004E004900C81F0860A6
:1005900010839000FFFFD000100310040000000043
:1005A000FFFF0000C00020000000FE3F0000C00070
:1005B00020000000FF0F0030E0400081000000003C
:1005C00000000080FE47022002100208E203020C35
:1005D00002100220FE4700800000000000008000A2
:1005E0004000200010008C3F8340808080408000CD
:1005F000860788189020204040808000000000027C
:1006000000020002FFFF00040004CC0422040004E6
:100610002201A300FEFFA401240624080000088094
:10062000888188468828FF10882C88438840088065
:1006300090801001FF7F1082104410040000000021
:1006400000000000000000000000000000000000AA
:10065000000000000000000000000000000000009A
:10066000000000000000000000000000000000008A
:1006700000000000F833000000000000000000004F
:100680000000000000000000000000000000020068
:100690000C00100002000C00100000000000000020
:1006A00000000000000000000000000000007804CE
:1006B000C03F40047804C03F400400000000000038
:1006C0000000000000000000000000000000301EDC
:1006D0000821FCFF8820882070180000000000001E
:1006E0000000000000000000000000000000001EEC
:1006F0001821601E8003F00C0831F000000000009B
:1007000000000000000000000000000000100021B8
:1007100000277019882C0823F021001E000000001B
:1007200000000000000000000000000000000000C9
:100730000000000000000E00120000000000000099
:100740000000000000000000000000000000024067
:1007500004201818E007000000000000000000005E
:100760000000000000000000000000000000000089
:100770000000E007181804200240000000000000FC
:100780000000000000000000000000000000400227
:1007900040028001F00F8001400240020000000092
:1007A0000000000000000000000000000001000147
:1007B0000001E00F00010001000100000000000046
:1007C0000000000000000000000000000000000029
:1007D0000000000000000070009000000000000019
:1007E0000000000000000000000000000000000108
:1007F00000010001000100010001000000000000F4
:1008000000000000000000000000000000000000E8
:100810000000000000000030003000000000000078
:1008200000000000000000000000000000000400C4
:100830003800C00000070018006000000000000041
:100840000000000000000000000000000000E00FB9
:100850001010082008201010E00F00000000000019
:100860000000000000000000000000000000002068
:100870000020F83F102010200000000000000000C1
:100880000000000000000000000000000000F03048
:100890000821082208240828703000000000000009
:1008A0000000000000000000000000000000701CBC
:1008B00088220821082108203018000000000000CC
:1008C00000000000000000000000000000240024E0
:1008D000F83F30244024800500060000000000009E
:1008E0000000000000000000000000000000080EF2
:1008F0000811882088208820F819000000000000D6
:100900000000000000000000000000000000001FC8
:100910009020882088201011E00F000000000000C7
:1009200000000000000000000000000000001800AF
:1009300068008801083E0800180000000000000060
:100940000000000000000000000000000000701C1B
:100950008822082108218822701C00000000000065
:100960000000000000000000000000000000E00F98
:100970001011082208220812F001000000000000F7
:100980000000000000000000000000000000000067
:100990000000C030C0300000000000000000000077
:1009A0000000000000000000000000000000000047
:1009B0000000000080E000000000000000000000D7
:1009C00000000000000000000000000000000820FF
:1009D0001010200840048002000100000000000008
:1009E00000000000000000000000000000004002C5
:1009F00040024002400240024002000000000000AD
:100A000000000000000000000000000000000001E5
:100A100080024004200810100820000000000000A0
:100A20000000000000000000000000000000700056
:100A300088000837083048007000000000000000FF
:100A40000000000000000000000000000000E017AF
:100A50001028E82F2828C8273018C00700000000F9
:100A6000000000000000000000000000002000382E
:100A70000027E0023802C023003C002000000000F4
:100A80000000000000000000000000000000000E58
:100A90007011882088208820F83F0820000000007E
:100AA0000000000000000000000000000000380806
:100AB00008100820082008203018C0070000000097
:100AC0000000000000000000000000000000E00F37
:100AD0001010082008200820F83F0820000000001F
:100AE00000000000000000000000000000001018DE
:100AF0000820E82388208820F83F08200000000014
:100B000000000000000000000000000000001000D5
:100B10000800E80388008820F83F08200000000053
:100B200000000000000000000000000000000002C3
:100B3000381E0822082008203018C00700000000D6
:100B40000000000000000000000000000820F83F46
:100B50000821000100010821F83F082000000000E2
:100B60000000000000000000000000000000000085
:100B700008200820F83F082008200000000000009E
:100B8000000000000000000000000000000008005D
:100B90000800F87F08800880008000C00000000086
:100BA000000000000000000000000000000008201D
:100BB00018382826C0018820F83F082000000000CF
:100BC00000000000000000000000000000000030F5
:100BD0000020002000200820F83F0820000000002E
:100BE00000000000000000000000000000000820DD
:100BF000F83FF801003EF801F83F0820000000002F
:100C00000000000000000000000000000800F83FA5
:100C100008180007C0003020F83F0820000000003E
:100C20000000000000000000000000000000E00FD5
:100C300010100820082008201010E00F000000000D
:100C40000000000000000000000000000000F000B4
:100C50000801080108010821F83F082000000000F1
:100C60000000000000000000000000000000E04F55
:100C700010500830082808281010E00F000000006D
:100C800000000000000000000000000000207030A4
:100C9000880C880388008820F83F082000000000A6
:100CA0000000000000000000000000000000381CF0
:100CB0000822082108218820703800000000000068
:100CC000000000000000000000000000000018000C
:100CD00008000820F83F0820080018000000000065
:100CE0000000000000000000000000000800F81FE5
:100CF0000820002000200820F81F08000000000045
:100D000000000000000000000000000008003800A3
:100D1000C801000E003888077800080000000000B5
:100D200000000000000000000000000000000800BB
:100D3000F803003EF801003EF80308000000000040
:100D40000000000000000000000000000820183033
:100D5000682C80038003682C1830082000000000F5
:100D6000000000000000000000000000000008007B
:100D70003800C820003FC8203800080000000000EC
:100D80000000000000000000000000000000081843
:100D90003820C8200821082608381020000000004C
:100DA0000000000000000000000000000000024001
:100DB00002400240FE7F0000000000000000000032
:100DC000000000000000000000000000000000C063
:100DD00000380006C00138000400000000000000D8
:100DE0000000000000000000000000000000000003
:100DF0000000FE7F024002400240000000000000B0
:100E000000000000000000000000000000000000E2
:100E100004000200020004000000000000000000C6
:100E200000000000000000000000000000800080C2
:100E300000800080008000800080008000000000B2
:100E400000000000000000000000000000000000A2
:100E5000000000000400020002000000000000008A
:100E60000000000000000000000000000000002062
:100E7000003F801280248024001900000000000040
:100E80000000000000000000000000000000000E54
:100E90000011802080200011F03F100000000000B1
:100EA0000000000000000000000000000000001131
:100EB0008020802080200011000E00000000000033
:100EC0000000000000000000000000000020F03FD3
:100ED0009010802080208020001F00000000000073
:100EE00000000000000000000000000000000017EB
:100EF0008024802480248024001F00000000000043
:100F000000000000000000000000000000002000C1
:100F100090209020E03F8020802000000000000012
:100F200000000000000000000000000000008060E1
:100F30008093809480948094006B000000000000F7
:100F40000000000000000000000000000020003F42
:100F50008020800080000021F03F10200000000071
:100F60000000000000000000000000000000000081
:100F700000200020983F9820802000000000000002
:100F80000000000000000000000000000000000061
:100F9000987F98808080008000C0000000000000E2
:100FA00000000000000000000000000000008020A1
:100FB0008030802900060024F03F1020000000004F
:100FC0000000000000000000000000000000000021
:100FD00000200020F83F102010200000000000003A
:100FE000000000000000000000000000003F800042
:100FF0008020803F80008020803F80200000000013
:101000000000000000000000000000000020003F81
:101010008020800080000021803F802000000000B0
:101020000000000000000000000000000000001FA1
:101030008020802080208020001F00000000000011
:101040000000000000000000000000000000000E92
:10105000001180208020009180FF8080000000002F
:10106000000000000000000000000000008080FF81
:101070000091802080200011000E00000000000080
:1010800000000000000000000000000000008001DF
:10109000800080200021803F802080200000000010
:1010A00000000000000000000000000000008019A7
:1010B000802480248024802400330000000000006D
:1010C0000000000000000000000000000000001010
:1010D00080208020E01F80008000000000000000D1
:1010E0000000000000000000000000000020803F21
:1010F0008010002000200020801F800000000000E1
:10110000000000000000000000000000000080005F
:101110008003800C0030800C800380000000000001
:1011200000000000000000000000000080018006B8
:1011300000388007800C0030800E80010000000025
:1011400000000000000000000000000000008020FF
:101150008031002E800E80318020000000000000D1
:10116000000000000000000000000000800080017E
:1011700080060018007880868081800000000000D2
:1011800000000000000000000000000000008030AF
:1011900080218022802C803080210000000000000F
:1011A00000000000000000000000000002400240BB
:1011B000FC3E0001000000000000000000000000F4
:1011C000000000000000000000000000000000001F
:1011D0000000FFFF00000000000000000000000011
:1011E00000000000000000000000000000000000FF
:1011F000000000000001FC3E024002400000000030
:1012000000000000000000000000000000000200DC
:10121000040002000200010002000000F3B581B0EA
:1012200012A0D101441800270298C11989B201986F
:1012300080B2FFF7ACF8FFF7A4F8042500260A48AF
:1012400021780122B240114201D0808900E0C0899A
:10125000FFF764F8761C082EF1DB641C6D1EEDD1DF
:101260007F1C202FE0DBF7BD4C00002000000000B9
:10127000000000000000000C0001801F8001001829
:1012800080010018000100180021001800F1FF1F64
:1012900000E1FF0F60210000F02100003821000074
:1012A0000821000000E11F0000E1FF0100018007AC
:1012B0000001000E000100180004001000060F20BD
:1012C000000403400084004008440000F8FFFF3F92
:1012D000FCFFFF7F00C4070000041E000004300074
:1012E0000004C00000000001000000000000000039
:1012F00000000000000000000000000008000000E6
:10130000F8FFFF3F040000400000000000800000E4
:1013100000E0010000700000000800000000000074
:10132000F0FFFF07F0FFFF070000000000000000D3
:1013300000C0010000E003000030000000000000D9
:1013400010000000F8FF0100F8FF3F000000F80166
:101350000000800300F8000E00E0031800000330D6
:10136000000002200000004000000000000000001B
:10137000000000000000000000000000000000303D
:10138000000000381000001CF8FF1F0EF0FF3F06A1
:101390001000000310000001100080011000800008
:1013A000100000001002000010FF070010FF7F0077
:1013B0001000E00110008003100000061000000C77
:1013C00010000008F0FF3F10F0FF7F100000002029
:1013D000000000200000004000000040000000402D
:1013E00000000000000000000000000000000000FD
:1013F000000000000040000000C0000000C000002D
:1014000000E0000000600000003000000058000014
:1014100000ECFF0100C7FF1FC041003C78400030D6
:101420000C40007000400010004000100040000818
:1014300000C0010010C01F0038407C00F840E001EF
:10144000C041000300470006004E000C0058001881
:1014500000300010004000200080004000000140EB
:10146000000002000000000000000000000000007A
:101470000000000000000C0000000C00000008004C
:1014800008000800F8FFFF3FFCFFFF7F000010008E
:1014900000001000000010000006100000072300EC
:1014A0008081210080C0200000002000000020007A
:1014B0000010400018185E001810060010100300FD
:1014C00030100100E0FFFF3FE0FFFF7F20900300AE
:1014D00020100E0020101800401020004010400086
:1014E000401080000000000100000000000000002B
:1014F00000000000000200200003003000830030E4
:1015000000C2033000820F3800823C180082700C49
:101510000882C00FF8FF8007FCFF00030082C006AE
:101520000082700C00821C080082031800820010E8
:101530000082002000420020004300200083004081
:101540000082004008020100F8FFFF3FFCFFFF3F60
:1015500000020270000206300002061000020C10A9
:1015600000020C000000000000000000000000006D
:10157000000000000000001C00FC1F0E00FC1F0704
:10158000000488040004080400040804F8FFFF0FA6
:10159000F8FFFF0F0004080800040808000408080A
:1015A00000FC1F1800FC1F18000000380000000895
:1015B00000F8FF1F40FCFF7FE0881020C08910204A
:1015C000408E101048F8FF1F588810007C881000CB
:1015D000E089100000FB7F0000FEFF030008000C04
:1015E000001000300020004000000000000000005B
:1015F0000000000000004020400060306008607083
:1016000040F84F3040F84F1848484418FC4B440C01
:10161000FC4B4406404844014048C4004048FC009C
:101620004848FC03FC4B4407FC4B440C404844181E
:1016300040F84F1040FC5F204022402040424020B4
:10164000004340400082004008820100FCFFFF3F51
:1016500000020330000202300002061000020C10EB
:1016600000020C000002000000000000000000006A
:1016700000080000000800000058000000DCFF3FE8
:10168000000C007000060030000B0010808FFF136C
:10169000C00C000028080000184800003CE8FF3F8C
:1016A000F0C8FF7FC0454420004B44000046440082
:1016B00000CCFF3F00F8FF7F80902000C0A02000FA
:1016C00080C020008088200088F8FF7F98FCFF7F82
:1016D000FC804000E0834000809E400080F0C0001D
:1016E00080C0C10080000000000000000000000079
:1016F00000000000000000040000000C0000001EBC
:101700000000000E00000007000080030000C00180
:101710000000E0000000780000001C0000000F0046
:1017200000E00300007C0000000F0000C01F00006C
:1017300060FC000030E003001000070018001C00EF
:1017400018003800000060000000C00000008001A8
:10175000000000020000000400000008000000106B
:101760000000001000000020000000000000000049
:1017700000000010000000100000001010080038E9
:10178000181C003818F8001C18C8070E10081E078F
:101790003008B8032008E0002008F00120081C03EE
:1017A00020C803024038000440080008C0FF0708B2
:1017B000E0FF7F100000E01300020026008307080E
:1017C0000083011000C2002008220000F8FFFF7F04
:1017D000FCFFFF7F00E2030000020E000002380061
:1017E0000002400000008000000000000000000037
:1017F00000000000000000180000C03F000400309E
:1018000000FE3F3000FC7F300004603000082030D4
:101810000008003008080030F8FFFF31FCFFFF31FE
:1018200000200030002000300020003080FFFF3F0B
:10183000C0FFFF1F004000000080800000A080006B
:10184000003001010020000100200003F0FFFF0331
:10185000F0FFFF07002000060020000C0020000C15
:101860000020001C0000000000000000000000003C
:101870000000000000400010006000180060001828
:101880000040001000400010004000100040001018
:1018900008400010F8FFFF1FFCFFFF1F00000010B2
:1018A00000000010000000100008001000FCFF1FE6
:1018B00000FCFF1F000000100010401000188010F6
:1018C000001080100010801008100001F8FFFF01C8
:1018D000FCFFFF0300100002001000060010000EC5
:1018E0000010000C000000000000000000000000DC
:1018F00000000000000000000000000000000000E8
:1019000000000000000000000000000000000000D7
:1019100000000000000000000000000000000000C7
:1019200000000000000000000000000000000000B7
:1019300000000000000000000000000000000000A7
:1019400000000000000000000000000000001E0E6B
:1019500000001E1E00001E1E00000C0C00000000F7
:101960000000000000000000000000000000000077
:101970000000000000000000000000000000000067
:101980000000000000000000000000000000000057
:101990000000000000000000000000000000000047
:1019A0000000000000000000000000000000000037
:1019B0000000000000F03F0000FEFF010007800370
:1019C00080010006400000084000000840000008B8
:1019D000C000000C80010006000FC00300FEFF01E4
:1019E00000F03F00000000000000000000000000C8
:1019F00000000000000000000000000000000000E7
:101A000000000000000000000000000000000000D6
:101A100000000000000000000000000000000000C6
:101A200000000000000000000000000000000000B6
:101A30000000000000000000000000080000000896
:101A4000000000080000000CC0FFFF0F80FFFF0F28
:101A50000001000C0001000800010008000100085E
:101A60000000000000000000000000000000000076
:101A70000000000000000000000000000000000066
:101A80000000000000000000000000000000000056
:101A90000000000000000000000000000000000046
:101AA0000000000000000000000000000000000036
:101AB00000000000003EC00380FF000E80C1010C4A
:101AC000C000030C4000060C40000C0C4000180C39
:101AD0004000300C4000400C8000800C0019000DCC
:101AE000001E000E000000000000000000000000CA
:101AF00000000000000000000000000000000000E6
:101B000000000000000000000000000000000000D5
:101B100000000000000000000000000000000000C5
:101B200000000000000000000000000000000000B5
:101B3000000000000000F000003EFC03007F0606ED
:101B400080C10204C0800308400001084000010871
:101B5000400001084000000880000004800FC0071A
:101B6000000FC003000000000000000000000000A3
:101B70000000000000000000000000000000000065
:101B80000000000000000000000000000000000055
:101B90000000000000000000000000000000000045
:101BA0000000000000000000000000000000000035
:101BB00000000000000020080000200800002008AD
:101BC000C0FFFF0FC0FFFF0F00032008000C20081C
:101BD0000010200800602000008021000000260086
:101BE00000002C0000003000000000000000000099
:101BF00000000000000000000000000000000000E5
:101C000000000000000000000000000000000000D4
:101C100000000000000000000000000000000000C4
:101C200000000000000000000000000000000000B4
:101C300000000000C000FC00C000FF03C0800107DE
:101C4000C0C00004C0400008C0400008C0400008F8
:101C5000C0400008C0800008C000010400FFC304A9
:101C60000000C003000000000000000000000000B1
:101C70000000000000000000000000000000000064
:101C80000000000000000000000000000000000054
:101C90000000000000000000000000000000000044
:101CA0000000000000000000000000000000000034
:101CB000000000000000FC008003FF038083010699
:101CC00040C0000C40400008404000084040000870
:101CD00080C0000C808100060007830700FCFF0124
:101CE00000E07F0000000000000000000000000095
:101CF00000000000000000000000000000000000E4
:101D000000000000000000000000000000000000D3
:101D100000000000000000000000000000000000C3
:101D200000000000000000000000000000000000B3
:101D300000000000C0000000C0010000C00600005C
:101D4000C0180000C0E00000C0000300C000FC0F8D
:101D5000C000C00FC0000000C0000000C0030000B1
:101D6000000E000000000000000000000000000065
:101D70000000000000000000000000000000000063
:101D80000000000000000000000000000000000053
:101D90000000000000000000000000000000000043
:101DA0000000000000000000000000000000000033
:101DB00000000000001EF001007FFC0380411E06B1
:101DC000C0800E044000070840000308408001085E
:101DD00040C00108C0C0010880F10204007F0E0667
:101DE000003EFC030000F0010000000000000000C5
:101DF00000000000000000000000000000000000E3
:101E000000000000000000000000000000000000D2
:101E100000000000000000000000000000000000C2
:101E200000000000000000000000000000000000B2
:101E30000000000000F81F0000FE7F000003E10129
:101E400080000603400004064000080C400008081B
:101E5000400008084000080880000C0880030707BD
:101E600000FF030700FC010000000000000000006C
:101E7000000000000001000080010000800100005F
:101E8000000100000041000000E1070000C1FF0167
:101E90000041F81F0041003C00410030004100704B
:101EA00000410070204100107841000838410008CE
:101EB0000CFF000004FF070000011E00000170007D
:101EC0000001C00100010003000100060001000C38
:101ED00000010008000100100001002000010020A6
:101EE00000010040000000000000000000000000B1
:101EF00000000000000000000001000000FFFF0FD4
:101F000080FFFF3F00010078000100300001001059
:101F1000000100100041000800E1FF0000C1FF00C7
:101F20000041200000412000004120000841200025
:101F3000184120007C412000C041200000C1FF006A
:101F4000002100010001000000010000000100006C
:101F50000001000000FFFF7F800000000000000083
:101F60000000000000000000000000000000000071
:101F700000000010000000100000003000000030E1
:101F8000183000381C7800181CF0011C18D0030C05
:101F900018100E0E18101C06181070031010E00117
:101FA0001010C001101060031010300310101C0638
:101FB000301006042090010C20700008201000183A
:101FC0002010001020100010E07F0020E0FF7F2094
:101FD0000000F841000080470000000C00000010E5
:101FE0000000002000000040000000000000000091
:101FF0000000000000000010300000183880001CB5
:1020000030C0001820C00010208000102080001078
:102010002080001020800010208000102080001000
:1020200020800010E0FFFF1FE0FFFF1F20000010D6
:1020300020000010200000102000001020000010E0
:102040002020001020E0FF1F20F0FF1F20000010C4
:1020500020000010200000102000001000000010E0
:102060000000001000000000000000000000000060
:102070000000000000000000000000000000000060
:102080000000000000000000000000000000000050
:102090000000000000000000000000000000000040
:1020A0000000000000000000000000000000000030
:1020B000000001000000010000000100000001001C
:1020C000000001000000010000000100000001000C
:1020D00000000100000001000000010000000100FC
:1020E00000000100000001000000000000000000EE
:1020F00000000000000000000000000000000000E0
:1021000000000000000000000000000000000000CF
:1021100000000000000000000000000000000000BF
:1021200000000000000000000000000000000000AF
:10213000000001000000010000000100000001009B
:10214000000001000000010000FEFF00000001008F
:10215000000001000000010000000100000001007B
:10216000000001000000000000000000000000006E
:10217000000000000000000000F8FF1F00FCFF3F0F
:1021800000082170C0082110E0082110C0092110AA
:1021900040FEFF1F40F8FF3F48082100580821007B
:1021A0007C082100F0082100C0F97F0000FFFF0338
:1021B0000004000F400800186050003040C0FF418C
:1021C00040C0FF034040800040408000C04380008A
:1021D000405F800040F8FF0F40C001004000030056
:1021E00040000C0000001000000000000000000093
:1021F000000000000000000080010010C00100305D
:1022000080230030803E103080301830802018301D
:10221000802010308020103080201030802010303E
:102220008020103080201010F0E0FF1FB8E0FF1F6A
:10223000842000088020000C802000048020000200
:10224000802000018020CE008020FE008020F0034E
:10225000802000078027000C002E001000040020C2
:10226000000000400000000000000000F3B581B055
:1022700012A09101441800270198C11989B202984F
:1022800080B2FEF784F8FEF77CF8042500260A48A1
:1022900021780122B240114201D0808900E0C0893A
:1022A000FEF73CF8761C082EF1DB641C6D1EEDD1A8
:1022B0007F1C102FE0DBF7BD4C0000200000000069
:1022C000000000000000000000000000000000000E
:1022D00000000000000000000000000000000000FE
:1022E00000000000000000000000000000000000EE
:1022F00000000000000000000000000000000000DE
:1023000000000000000000000000000000000000CD
:1023100000000000C01F0006C0FF1F0FC0FF1F0FFE
:10232000C00F0006000000000000000000000000D8
:10233000000000000000000000000000000000009D
:1023400000000000000000001C0000003C00000035
:1023500078000000E0000000800100001C03000085
:102360003C00000078000000E00000008001000058
:10237000000300000000000000000000000000005A
:102380000038700000387000C03F700000F8FF0097
:102390000038F00F0038700000387000003870000E
:1023A00000387000C03F700000F8FF000038F00FE8
:1023B00000387000003870000000000000000000CD
:1023C0000000000000000000000FF001800FFC037F
:1023D000800C1E064000070C40000708F0FFFF7F3E
:1023E00040C0010880F00008807FC004001EC007C4
:1023F0000000C0030000000000000000000000001A
:102400000000F8010000FE070000030CC0000108F6
:102410000003030C001CFE0700E0F80100000300AD
:10242000007E1C0080FF6100C00083034000020C9E
:10243000C000030080FF0100007E000000000000DB
:1024400000000003000001060000010C00000F0C5A
:102450000000710E00008107000F8003C03FE005FF
:102460004060780840803E08C0C00F0880FF030C21
:10247000007F03060000FC030000F80100000000DC
:10248000000000000000000000000000000000004C
:10249000000000000000000000000000000000003C
:1024A0000000000078000000FC0000001C0100009B
:1024B0001C030000000200000000000000000000FB
:1024C0000400004008000020300000186000000CEC
:1024D000C0010007000FE00100FC7F0000F01F00BA
:1024E00000000000000000000000000000000000EC
:1024F00000000000000000000000000000000000DC
:1025000000000000000000000000000000000000CB
:10251000000000000000000000F01F0000FCFF00B1
:10252000000FE001C00100076000000C300000183F
:10253000080000200400004000000000000000002F
:102540000018180000381C0000300C000060060065
:1025500000400200008FE10000FFFF000086F10054
:10256000004002000060060000300C0000381C0033
:10257000001818000000000000000000000000002B
:102580000000010000000100000001000000010047
:10259000000001000000010000FEFF00000001003B
:1025A0000000010000000100000001000000010027
:1025B000000001000000000000000000000000001A
:1025C000000000000000000000000000000000000B
:1025D00000000000000000000000000000000000FB
:1025E000000000000000001E0000003F0000004747
:1025F000000000C700000080000000000000000094
:1026000000000100000001000000010000000100C6
:1026100000000100000001000000010000000100B6
:1026200000000100000001000000010000000100A6
:102630000000010000000100000000000000000098
:10264000000000000000000000000000000000008A
:10265000000000000000000000000000000000007A
:1026600000000000000000060000000F0000000F46
:102670000000000600000000000000000000000054
:102680001800000070000000C001000000070000FA
:10269000001C00000070000000C0010000000700E6
:1026A00000001C00000070000000C00100000007D6
:1026B0000000001C000000300000000000000000CE
:1026C0000000000000F03F0000FEFF010007800353
:1026D000800100064000000840000008400000089B
:1026E000C000000C80010006000FC00300FEFF01C7
:1026F00000F03F00000000000000000000000000AB
:1027000000000000000000000000000800000008B9
:10271000000000080000000CC0FFFF0F80FFFF0F4B
:102720000001000C00010008000100080001000881
:102730000000000000000000000000000000000099
:1027400000000000003EC00380FF000E80C1010CAD
:10275000C000030C4000060C40000C0C4000180C9C
:102760004000300C4000400C8000800C0019000D2F
:10277000001E000E0000000000000000000000002D
:10278000000000000000F000003EFC03007F060691
:1027900080C10204C0800308400001084000010815
:1027A000400001084000000880000004800FC007BE
:1027B000000FC00300000000000000000000000047
:1027C0000000000000002008000020080000200891
:1027D000C0FFFF0FC0FFFF0F00032008000C200800
:1027E000001020080060200000802100000026006A
:1027F00000002C000000300000000000000000007D
:1028000000000000C000FC00C000FF03C080010702
:10281000C0C00004C0400008C0400008C04000081C
:10282000C0400008C0800008C000010400FFC304CD
:102830000000C003000000000000000000000000D5
:10284000000000000000FC008003FF0380830106FD
:1028500040C0000C404000084040000840400008D4
:1028600080C0000C808100060007830700FCFF0188
:1028700000E07F00000000000000000000000000F9
:1028800000000000C0000000C0010000C006000001
:10289000C0180000C0E00000C0000300C000FC0F32
:1028A000C000C00FC0000000C0000000C003000056
:1028B000000E00000000000000000000000000000A
:1028C00000000000001EF001007FFC0380411E0696
:1028D000C0800E0440000708400003084080010843
:1028E00040C00108C0C0010880F10204007F0E064C
:1028F000003EFC030000F0010000000000000000AA
:102900000000000000F81F0000FE7F000003E1014E
:1029100080000603400004064000080C4000080840
:10292000400008084000080880000C0880030707E2
:1029300000FF030700FC0100000000000000000091
:102940000000000000000000000000000000000087
:102950000000000000C0000600E0010F00E0010FD1
:1029600000C00006000000000000000000000000A1
:102970000000000000000000000000000000000057
:102980000000000000000000000000000000000047
:10299000000000000000000000C0011E00C0017E19
:1029A00000C0016E000000000000000000000000F8
:1029B0000000000000000000000000000000000017
:1029C0000000000040000008800000040001000238
:1029D00000020001000480000008400000102000F8
:1029E00000201000004008000080040000000300E8
:1029F00000000000000000000000000000000000D7
:102A00000020080000200800002008000020080026
:102A10000020080000200800002008000020080016
:102A20000020080000200800002008000020080006
:102A30000020080000200800000000000000000046
:102A400000000000000000000000030000800400FF
:102A50000040080000201000001020000008400086
:102A60000004800000020001000100028000000458
:102A7000400000080000000000000000000000000E
:102A8000003E0000007F000080C100008080010047
:102A9000400001004000030640003E0F4000000FD0
:102AA000400000068000000080390000003F000068
:102AB000003C0000000000000000000000000000DA
:102AC00000F887000006180300012006803C40043F
:102AD00040F87F0840043C08400C2008407840083B
:102AE000C0E07F0880813F0400030006000EC003A1
:102AF00000FCFF0000E01F000000000000000000DC
:102B0000000000080000000C0000800F0000F80F1B
:102B100000807F0800FC0B00C03F0800C0030800D5
:102B2000C0030800007C080000C00F0800007808FF
:102B30000000800F0000000C0000000800000000F2
:102B40000000F001003EFC03807F060680C1020CFD
:102B5000C080010840000108400001084000010851
:102B60004000010840000108C0FFFF0FC0FFFF0F39
:102B700040000008400000080000000000000000C5
:102B8000000EC000800300018001000280000004EC
:102B90004000000840000008400000084000000815
:102BA000C00000088000000400030006001EC003EF
:102BB00000FCFF0000E03F000000000000000000FB
:102BC00000F01F0000FCFF00000FC00380010003A5
:102BD00080000004C000000C400000084000000815
:102BE0004000000840000008C0FFFF0FC0FFFF0FBB
:102BF0004000000840000008000000000000000045
:102C000000068001C001000EC000000C40E00F086B
:102C1000408003084000010840000108400001080E
:102C20004000010840000108C0FFFF0FC0FFFF0F78
:102C30004000000840000008000000000000000004
:102C400000060000C0010000C0000000C0E01F003E
:102C500040800300400001004000010040000100EE
:102C60004000010840000108C0FFFF0FC0FFFF0F38
:102C700040000008400000080000000000000000C4
:102C80000000040000000400000EFC038003FC03AD
:102C900080000404400004084000000840000008D0
:102CA000400000088000000C80030006000EC003F6
:102CB00000FCFF0000E01F000000000040000008D2
:102CC00040000008C0FFFF0FC0FFFF0F40000108D9
:102CD00040000108000001000000010000000100A8
:102CE000000001004000010840000108C0FFFF0F84
:102CF000C0FFFF0F40000008400000080000000077
:102D00000000000000000000400000084000000833
:102D10004000000840000008C0FFFF0FC0FFFF0F89
:102D20004000000840000008400000084000000883
:102D30000000000000000000000000000000000093
:102D40004000000040000000400000004000000083
:102D5000C0FFFF1FC0FFFF3F40000060400000C0F9
:102D6000400000804000008000000080000000F073
:102D7000000000F0000000700000000000000000F3
:102D800000000008400000084000000EC000C00F16
:102D9000C003F00940063C0000180F0000E00300EB
:102DA0004080000840000308C0FFFF0FC0FFFF0F76
:102DB0004000000840000008000000000000000083
:102DC000000080010000000E0000000C0000000860
:102DD00000000008000000080000000800000008D3
:102DE0004000000840000008C0FFFF0FC0FFFF0FB9
:102DF00040000008400000080000000040000008FB
:102E000040000008C0FFFF0FC0FFFF0F8007000851
:102E10000078000800800F000000F0000000C00FE4
:102E20000000FE0300F01F0080FF0100C00F00083B
:102E3000C0FFFF0F400000084000000840000000F5
:102E400040000000C0FFFF0F400080074000E0018D
:102E50000000780000001E000080070000E0010074
:102E600000780000001E000080070008C001000874
:102E7000C0FFFF0F400000084000000800000000F5
:102E800000E03F0000FCFF00000FC00380010006CF
:102E900080000004400000084000000840000008D6
:102EA000400000088000000480010006000FC003FD
:102EB00000FCFF0000F01F00000000000000000008
:102EC000007E000000FF000080810100C0000100C2
:102ED00040000200400002004000020040000200EA
:102EE0004000020840000208C0FFFF0FC0FFFF0FB4
:102EF0004000000840000008000000000000000042
:102F000000F03F1000FCFF61000F8063800100763D
:102F10008000003F4000800F4000C0084000400893
:102F2000400040088000400480018007000F8003BB
:102F300000FCFF0100F03F00000000000000000066
:102F400000000008003E0008807F000E80C1C00F16
:102F5000C080F90140003F00400007004000010030
:102F60004000010840000108C0FFFF0FC0FFFF0F35
:102F700040000008400000080000000000000000C1
:102F8000000000000000F001C00FFC0380031E06DB
:102F90008000060CC00007084000030840800308BA
:102FA0004080010840C00108C0C0000480E1000664
:102FB000007F800F003EE0000000000000000000E5
:102FC00000070000C00100004000000040000000B9
:102FD0004000000840000008C0FFFF0FC0FFFF0FC7
:102FE000400000084000000840000000C000000051
:102FF000C00100000006000000000000000000000A
:103000004000000040000000C0FFFF01400000023F
:103010004000000400000008000000080000000854
:10302000000000084000000C40000006C0FFFF0741
:10303000C0FFFF0140000000400000000000000051
:1030400040000000C0000000C00700004078000001
:103050000080070000007800000080030000F00FEF
:103060000000FF0040F80F00C0FF0000C007000094
:103070004000000040000000000000004000000090
:10308000C0000000C03F000040C00F000000F00181
:103090000000FC0F40F8FF00C0FF0100C0F301007A
:1030A00040001E000000E0030000FC0F40F83F005D
:1030B000C0FF0000C0010000400000000000000050
:1030C000400000084000000CC000000E4003C00F8C
:1030D000400CF00900307C0000C00F0000E0070049
:1030E00000781800401E6008C007800BC001000E69
:1030F0004000000840000008000000000000000040
:103100004000000040000000C0010000400E000030
:1031100040700008008001080000FE0F0080FF0FD3
:1031200040E00308407C0008C01F0000C00300000E
:10313000C00000004000000000000000000000008F
:1031400040008001C001000FC007000C400E000CC1
:103150004038000840F0000840C0030840000F0855
:1031600040003C08C0007008C001C009C003800FC7
:103170000006000E00000008000000000000000033
:1031800000000000080000200800002008000020C7
:10319000080000200800002008000020F8FFFF3F82
:1031A000F8FFFF3F000000000000000000000000EA
:1031B000000000000000000000000000000000000F
:1031C00000000040000000780000003E0000C00742
:1031D0000000F00100003C000080070000E001005A
:1031E000003C0000000F0000E00100006000000053
:1031F00000000000000000000000000000000000CF
:1032000000000000000000000000000000000000BE
:1032100000000000F8FFFF3FF8FFFF3F080000201C
:1032200008000020080000200800002008000020FE
:103230000800002000000000000000000000000066
:10324000000000000000000000000000200000005E
:10325000180000000C0000000C0000000C00000032
:103260001C00000010000000200000000000000012
:1032700000000000000000000000000000000080CE
:10328000000000800000008000000080000000803E
:10329000000000800000008000000080000000802E
:1032A000000000800000008000000080000000801E
:1032B000000000800000008000000080000000008E
:1032C00000000000000000000000000000000000FE
:1032D00000000000000000001000000008000000D6
:1032E0000C000000040000000400000004000000C6
:1032F00000000000000000000000000000000006C8
:1033000000000008000000080080FF0F00C0FF0759
:1033100000600404002008040020080800200808B9
:1033200000200808002018080040100800C0330CD6
:103330000080E3070000C003000000000000000060
:10334000000000000000FF0000C0FF0300C00006F6
:103350000060000C00200008002000080020000889
:103360000040000800800106E0FFFF07C0FFFF0FDC
:1033700040000000400000000000000000000000CD
:1033800000000000000080010080030200C0030470
:10339000002000080020000800200008002000088D
:1033A0000060000800C0000400C001070000FF0327
:1033B0000000FE000000000000000000000000000F
:1033C0000000000400000004E0FFFF07C0FFFF0F43
:1033D00040400002402000040020000800200008B7
:1033E000002000080060000C00C001060080FF0300
:1033F0000000FE00000000000000000000000000CF
:103400000000000000001E0100801F0600C0100424
:1034100000401008002010080020100800201008AC
:103420000020100C0040100400C011070000FF0332
:103430000000FE000000000000000000000000008E
:1034400080030000C003000040200000402000086E
:1034500040200008402000088020000880FFFF0F67
:1034600000FEFF0F002000080020000800200008D8
:10347000002000000000000000000000000000002C
:10348000006000000060003C00A00F7E00C01F46EE
:1034900000603082002020830020208300202083D1
:1034A000002020830040308300C0FF470000C77D1C
:1034B00000000038000000000000000000000000D4
:1034C00000000008000000080080FF0F00C0FF0F90
:1034D000006000080020000800200000002000001C
:1034E0000040000800800008E0FFFF0FC0FFFF0F52
:1034F000400000084000000800000000000000003C
:1035000000000000000000000000000800000008AB
:103510000000000880000008C0F1FF0FC0E1FF0FAD
:10352000802000080020000800200008002000087B
:10353000000000000000000000000000000000008B
:103540000000000000000000C0000000C0F1FF1FEC
:10355000C0E1FF3F8020006000200080002000804C
:103560000020008000000080000000E000000060FB
:10357000000000000000000000000000000000004B
:10358000000000080020000C0020000E0060800FEA
:1035900000E0C0090020710000003E0000000C00A7
:1035A0000000180800003008E0FFFF0FC0FFFF0F09
:1035B000400000084000000800000000000000007B
:1035C00000000000000000000000000800000008EB
:1035D0000000000800000008E0FFFF0FC0FFFF0F21
:1035E00040000008400000084000000840000008BB
:1035F00000000000000000000000000000000008C3
:1036000000C0FF0F00E0FF0F0020000800200000B6
:10361000002000000040000800C0FF0F00E0FF0F86
:1036200000200008002000000020000000400008EA
:1036300000F0FF0F00E0FF0F002000080000000076
:1036400000000008000000080080FF0F00C0FF0F0E
:10365000006000080020000800200000002000009A
:10366000004000080080000800E0FF0F00C0FF0FCE
:1036700000400008004000080000000000000000BA
:10368000000000000000FE000080FF0300C00107F2
:10369000004000040020000800200008002000086E
:1036A000002000080040000400C001070000FF03E4
:1036B0000000FC000000000000000000000000000E
:1036C000000000000000FE000080FF0300C00007B3
:1036D0000060000C00200008002000080020000806
:1036E000004000840080008600E0FFFF00C0FFFF74
:1036F000004000800040008000000000000000004A
:10370000000000800000008000E0FFFF00C0FFFF1D
:1037100000C000860060008400200008002000082F
:10372000002000080040000C00C001060080FF03DC
:103730000000FE000000000000000000000000008B
:1037400000C0000000E00000002000000020000099
:103750000040000800400008008001080000030845
:1037600000E0FF0F00E0FF0F0040000800400008ED
:1037700000400008004000080000000000000000B9
:103780000000000000E0C30300C0E0070040700C30
:1037900000203008002038080020180800201808F1
:1037A00000600C0800C00F04008007060000800FB6
:1037B0000000000000000000000000000000000009
:1037C00000000000000000030020000400200008AA
:1037D00000200008002000080020000C00FFFF0768
:1037E00000F8FF030030000000200000002000006F
:1037F00000200000000000000000000000000000A9
:10380000000000040000000400F0FF0700E0FF0FCC
:103810000020000200200004000000080000000852
:10382000000000080000000C00F0FF0700E0FF03AC
:103830000020000000200000000000000000000048
:10384000002000000060000000E0010000200700F0
:10385000002038000000C001000000070000C00F79
:103860000000F00100203E0000E0070000E0010041
:1038700000200000002000000000000000200000E8
:103880000060000000E0030000203C000000C003D6
:103890000000C00F0020FC0100E01F0000E00F004E
:1038A0000020F0000000800F0020F00700207F00C3
:1038B00000E00700006000000020000000000000A1
:1038C00000000008002000080020000E00E0000FAB
:1038D0000020C1090020E6080000380000003E007A
:1038E00000A0470000E0810900E0000E0020000C6D
:1038F0000020000800000008000000000000000098
:1039000000200000002000000060000000E0030034
:1039100000201C000000E000000000030000C01FA9
:103920000000786000201EC000E003C000E000C07E
:10393000002000C000200000000000000000000087
:1039400000000000000080030060000E00E0000C9A
:1039500000E003080020070800201E0800203808A7
:103960000020F0080020C0090020800B00E0000EBD
:1039700000E0030C00000000000000000000000058
:103980000000000004000040040000400800002087
:10399000F07FFC1F00800200008001000000010099
:1039A0000000000000000000000000000000000017
:1039B0000000000000000000000000000000000007
:1039C00000000000000000000000000000000000F7
:1039D0000000000000000000FFFFFFFF00000000EB
:1039E00000000000000000000000000000000000D7
:1039F00000000000000000000000000000000000C7
:103A000000000000000000000000000000000000B6
:103A100000000000000001000080010000800200A2
:103A2000F07FFC1F0800002004000040040000405C
:103A30000000000000000000000000000000000086
:103A400018000000200000004000000040000000BE
:103A50006000000020000000380000000C000000A2
:103A6000060000000200000002000000020000004A
:103A700004000000180000000000000078B50DB43C
:103A800010390D000024089E05E0521CD2B25F2AB6
:103A900005DB641CE4B2019884420ED20022305D42
:103AA00006490968895C8842EFD100992800FEF731
:103AB000DDFB6846007A2D1AEBE77FBD6C00002025
:103AC000F0B5002301229A400C681440944228D19A
:103AD0005C000326A640F5430E79012E01D0022E8C
:103AE0000FD186682E40866086684F79A74037439D
:103AF000876086889643868082888E799E401643AA
:103B0000868002682A40026002680E79A640164349
:103B10000660C2681540C560C268CD79A5401543EE
:103B2000C5605B1C102BCDD3F0BD02000020128AB3
:103B3000FFE70A4200D0012070478161704701858C
:103B4000704710B5CB089B00C0184907C90E036A1F
:103B50000F248C40A3430362036A8A401A43026223
:103B600010BD30B4012100220368001D002B0BD0D2
:103B70000468001D0C4202D04D466D1E641922607F
:103B8000241D1B1FF0D0FAE730BC704718B50300A6
:103B90000020009008E004000098185C6040C0B26B
:103BA000009C641CE4B20094009C8C4207DA012A59
:103BB00002D0022AEFD0F3E71C5D0019EFE712BD37
:103BC0000E49884200D3481E0100481E0029FBD13F
:103BD000704710B504000AE00948FFF7F1FF200024
:103BE000052100F0D6F8002901D100F029F92000C4
:103BF000441E0028F0D110BD00000000A186010085
:103C00008C230000F0B587B080277F0101213800A8
:103C100000F089F90121880400F07BF9474E002269
:103C200003213000FFF78DFF002205213000FFF750
:103C300088FF002204213000FFF783FF022069463D
:103C4000087100248C71C871032048710825009503
:103C50003000FFF735FF2020009069463000FFF765
:103C60002FFF1020009069463000FFF729FF282120
:103C70003000FFF762FF02A88221490041800480E2
:103C8000E021C9008180C4800481A901418185812E
:103C9000C481072101822A4C02A9200000F068F9A2
:103CA0000121200000F088F93900200000F08EF991
:103CB00007B0F0BDF0B58BB00121012000F029F96B
:103CC000204800F0ABF920480090204C601C019087
:103CD00000250295012703970495802605960695F1
:103CE00007950895C020800109900A9569461548F6
:103CF00000F0C1F9164800F091F9134800900194C2
:103D0000102002900397049505960695079508954F
:103D1000000209900A9569460D4800F0ACF90122AD
:103D20000221074800F064F90121064800F0BEF9BD
:103D30000121074800F0BAF90BB0F0BD00040048BB
:103D4000003001401C0002400C3001401C010020EA
:103D500030000240F8B506000F00C924C925022131
:103D6000300000F053F9002802D16D1E10D0F6E7A4
:103D70003900300000F02DF90121300000F046F943
:103D8000002802D1641EF7D1F2BD300000F023F903
:103D9000F2BD0022030A8B420BD203098B4219D2D7
:103DA00043088B422ED2411A00D20146524110469E
:103DB0007047FF2209023FD012068B4205D3121230
:103DC00009028B4201D31212090203098B4219D353
:103DD00000E0090AC3098B4201D3CB01C01A52414A
:103DE00083098B4201D38B01C01A524143098B4294
:103DF00001D34B01C01A524103098B4201D30B017D
:103E0000C01A5241C3088B4201D3CB00C01A5241A1
:103E100083088B4201D38B00C01A524143088B4266
:103E200001D34B00C01A5241884200D3401A52417C
:103E3000CFD201461046704708B500F049F908BDD9
:103E4000024801490860704700300040AAAA0000FB
:103E5000F0B504003E4D28683E4E0C210140082973
:103E600013D1286829688002070FBF1CC80303D438
:103E700070084743380009E0A96A30000907090FB4
:103E8000491CFFF786FF784300E0300020602A6875
:103E9000314821681206120F825CD14061602A68A5
:103EA0005205520F805CC140A160E86AC00501D490
:103EB0002A4805E02868400401D4480800E0880842
:103EC000E06080200002E96A490601D4244900E04C
:103ED00001002161E96AC90601D4310000E02168CE
:103EE00061610321EA6A0A4001D1A06809E0EA6A37
:103EF0000A40012A01D1206803E0EA6A0A40022A46
:103F000001D1A061F0BDE86A0140032900D1A6619A
:103F1000F0BD144A0029116802D0084310607047B0
:103F2000814311607047104A0029116802D008438C
:103F3000106070478143116070470C4A0029116876
:103F400002D0084310607047814311607047000041
:103F50000410024000127A005C000020809FD5000F
:103F60001280000014100240181002401C10024081
:103F70000288C1239B0113400A881A43CB8913434B
:103F8000CA881A430B8913434A891A438B891343FE
:103F900003808288114B13408A881A4382800A8AE0
:103FA000028202880E4B1340498819430180818B9D
:103FB0000C4A0A40828370470029018802D04022BF
:103FC0000A4301E0084A0A40028070478288074B92
:103FD00016E001737047007B70470000FFF000009F
:103FE000FBFF0000FFF70000BFFF0000FFEF000035
:103FF000002A828800D006E08A4382807047000051
:104000001340838082881143818070470200002022
:1040100012890A4200D001207047FEE70168284A51
:104020000A4002600021016041608160C160254951
:10403000254A904202D108680F2219E014329042BA
:1040400002D10868F02213E01432904203D10868CC
:10405000F02212010CE01432904203D10868F022E1
:10406000120205E01432904204D10868F0221203D3
:1040700002430A6070470268144B13408A681A436F
:104080000B6A13430A691A434B6913438A691A433B
:10409000CB6913434A6A1A438B6A13430360CA68A5
:1040A00042600A6882604968C160704700290168FF
:1040B00002D001220A4301E0014A0A40026070472F
:1040C000FEFF000004000240080002400F80FFFFD6
:1040D0007047FEE7F8B50500F8263602414806802D
:1040E0000020414908800096A0235B00782200212F
:1040F000FCF776F9B4277F0000963B00F022002100
:104100007820FCF76DF9002000903B007A22002116
:104110007820FCF765F9002000906C23F0226A21DA
:104120007820FCF75DF900200090D623F022D421FE
:104130007820FCF755F9012D01D11B2402E0002D58
:1041400000D11A240A228C2149000020FDF766F8CC
:104150001822F0210020FDF761F81922C821002063
:10416000FDF75CF80D22A0210020FDF757F8E2B220
:1041700078210020FDF752F800963B00F022002144
:104180007820FCF72DF9002000903B007A220021D6
:104190007820FCF725F9002000906C23F0226A219A
:1041A0007820FCF71DF900200090D623F022D421BE
:1041B0007820FCF715F91E22AA21B420FDF72EF86D
:1041C0001F228221B420FDF729F81A2282214900FA
:1041D000B420FDF723F81B222821B420FDF71EF898
:1041E000F1BD00005A00002058000020F8B5C44C72
:1041F000C448006820624605760DE661FA27BF00D4
:1042000030003900FFF7C5FD0D00701B3900FFF7C6
:10421000C0FD0E3080B2A06028006421FFF7B9FD18
:104220000E00A81B6421FFF7B4FD0E3080B2E060E1
:1042300030000A21FFF7ADFD0F00F01B0A21FFF748
:10424000A8FD0E3080B220610E37BFB26761F8253D
:104250002D02D64805800020AB490880A0277F00AA
:1042600000953B0078220021FCF7BAF8E069C00A0B
:1042700060608C2676000A2231000A20FCF7CEFF0F
:104280000B22F0210A20FCF7C9FF0C22C8210A20CA
:10429000FCF7C4FF0D22A0210A20FCF7BFFFA26893
:1042A00092B28C210A20FCF7B9FFE26892B2782121
:1042B0000A20FCF7B3FF226992B264210A20FCF7BE
:1042C000ADFF626992B250210A20FCF7A7FF0A22D3
:1042D00031004620FCF7A2FF1822F0214620FCF70F
:1042E0009DFF1922C8214620FCF798FF0D22A0212E
:1042F0004620FCF793FF62681A3292B2782146207A
:10430000FCF78CFF0095B4235B00F022002178209D
:10431000FCF766F81F2000903B00F022F021782087
:10432000FCF75EF81F20A14908800022B421FE306E
:10433000FCF77CF80122B421FF200A30FCF776F864
:104340000095F023F022A0217820FCF749F8974847
:1043500005800222B421D220FCF768F80322B421A0
:10436000BE20FCF763F8924D0095A023F022502167
:104370007820FCF735F88D4805800422B421782098
:10438000FCF754F80522B4216420FCF74FF8FC2513
:10439000ED0000955023F02200217820FCF720F852
:1043A000824805800622B4212820FCF73FF8072226
:1043B000B4211420FCF73AF8002000903B003E2284
:1043C00000213C20FCF70CF8002000903B007A22F2
:1043D00000217820FCF704F8002000905223F022FE
:1043E00050217820FBF7FCFF00200090A223F02250
:1043F000A0217820FBF7F4FF00200090F223F022A8
:10440000F0217820FBF7ECFF002000903B00F02229
:10441000991E7820FBF7E4FF0420A061F1BDF8B5F8
:10442000374C3848006820624605760DE661FA2769
:10443000BF0030003900FFF7ACFC0D00701B3900E5
:10444000FFF7A7FC07000E37BFB2A7602800642162
:10445000FFF79FFC0091681A6421FFF79AFC0E3069
:1044600080B2E06000980A21FFF793FC0D000098ED
:10447000401B0A21FFF78DFC0E3080B220610E3503
:10448000ADB265614B48018A4B4A914236DA408AA7
:104490001C4D4A49884201DA761C13E0484941180C
:1044A000484A914208D24848FBF78AFF0120FFF7AB
:1044B00011FE0220A061F1BD4449401844498842E0
:1044C0001CD2761EE6613A008C210A20FCF7A6FE7B
:1044D000E26892B278210A20FCF7A0FE226992B22B
:1044E00064210A20FCF79AFE626992B250210A20E8
:1044F000FCF794FEE169280000F070F8F1BD0000BF
:104500000000002000500008580000202948018ABF
:10451000294A914200DB704770B5408A2D4D2E4CE0
:104520002649884207DA002060601B227821FCF7C8
:1045300075FEE16910E0012621494118214A9142A6
:104540000CD22148FBF73CFFFFF750FE0320A0618F
:104550002670206AE90B014321620FE01B494018D5
:104560001B4988420DD26660E069290C0143216233
:104570001A2278210020FCF751FE216A280000F061
:104580002DF870BD80B514488069012804D00BD384
:10459000032807D003D301BDFFF741FF01BDFFF79B
:1045A000B5FF01BDFFF722FE01BD00005A0000204B
:1045B000E0FF0000C000002039040000BD02000040
:1045C000B4FBFFFF79050000FFFF00003CF6FFFF92
:1045D0003C050000005000080000002038B5050030
:1045E0000C0000F013F8342000F06AF8280000F006
:1045F0001CF8054885602100284600F031F800F0DD
:104600000EF831BD000000003C0000202848C168C1
:10461000090603D5274901602749016070472748EB
:10462000016880220A430260704770B50400B0251B
:104630002D03280000F05EF8042810D11F4E3068CA
:1046400002210143316074603068402101433160D0
:10465000280000F04FF8316802229143316070BDAC
:10466000F2B582B0040000200090B0273F0338006C
:1046700000F040F8042819D1104D286801210143A9
:10468000296002982080380000F034F80126F643B3
:10469000042808D1A41C00940298000C00990880FA
:1046A000380000F027F829680E402E60FEBD00009B
:1046B0000420024023016745AB89EFCD1020024062
:1046C0000B4908607047000010B504210420012246
:1046D000074B1C68144001D0012010BD1A68D20697
:1046E00001D5022010BD1A68114000D0032010BD72
:1046F0000C20024010B50400FFF7E6FF04E0002C98
:1047000006D0FFF7E1FF641E0128F8D0002C00D18D
:10471000052010BD38B57E4C9025ED058021280080
:10472000FFF703FA00280DD140212800FFF7FDF91B
:10473000002807D010212800FFF7F7F9002801D042
:1047400001203AE080212800FFF7EFF900280DD082
:1047500040212800FFF7E9F9002807D1102128009F
:10476000FFF7E3F9002801D0022026E0802128008D
:10477000FFF7DBF900280DD040212800FFF7D5F91D
:10478000002807D010212800FFF7CFF9002801D119
:10479000032012E080212800FFF7C7F900280DD080
:1047A00040212800FFF7C1F9002807D01021280078
:1047B000FFF7BBF9002801D00820207031BD0000B0
:1047C00070B582B000F045F900F076F90020FBF7F3
:1047D000F7FD00204F4908804F4850490880A02429
:1047E000640000BF54A00090102307222100002085
:1047F000FFF744F952A0009010230722210028203F
:10480000FFF73CF950A00090102307222100502010
:10481000FFF734F9F820000200905A2328220021E3
:104820000020FBF7DDFDFC20C00000905A23502241
:1048300000212820FBF7D4FD394800905A23782224
:1048400000215020FBF7CCFD364D80212800FFF7DA
:1048500076F9C820FFF7BDF980212800FFF76DF930
:104860003BA00090142307222100C820FFF706F97F
:104870002D4E2EA42EA525E0082814D10094142333
:104880000322A0210020FFF7F9F80094142303224B
:10489000A0212820FFF7F2F8009414230322A0217E
:1048A0005020FFF7EBF83088C0070BD5FFF7C8FAA8
:1048B00072B600F009FA62B600F034FA30881D4989
:1048C00001403180FFF726FF11480078012801D10F
:1048D0000095D4E7022808D1009414230322A021D4
:1048E0000020FFF7CBF80095D0E70328C4D100944F
:1048F00014230322A0210020FFF7C0F80094142302
:104900000322A0212820FFF7B9F80095C5E7000091
:104910001F0100205A000020FFFF00005800002067
:10492000E0FF000000040048100100204F46460050
:104930004F4E2000FEFF0000494E5055545F31009D
:10494000494E5055545F3200494E5055545F330024
:104950004C45443A204F4E00F8B5534EF02030609D
:10496000002030710124F471032575719027FF0533
:1049700031003800FFF7A4F8812030603471F47101
:10498000757131004948FFF79BF8022026E010B509
:1049900045498E200002086001200871C87103207B
:1049A00048719024E4052000FFF78AF880218900EF
:1049B0002000FFF7C2F810BDF8B53B4E8020C001C3
:1049C0003060002030710124F47103257571374F78
:1049D00031003800FFF774F8B02000023060347105
:1049E000F471757131003800FFF76AF8F1BD70B5E8
:1049F00084B00121C020C002FFF78BFAFFF7ACFFA3
:104A0000FFF7C5FFFFF7D8FF01210120FFF78BFA61
:104A10002549802636010E6000240C710125CD71D8
:104A2000032048712148FFF74BF80B21012000F0CB
:104A300043FA019601A804710C214171857100F0BF
:104A400051FA6846072101704470857000F08CFAB5
:104A50007FBD00B587B06846FFF7FAF90198FA21E3
:104A60008900FFF796F9401E8021490488420DD243
:104A70000F4948600F4802681202120AC0231B0641
:104A8000134303600020886007200860FFF7AFFF32
:104A900000F012F800F092FAFFF7B4F8FFF70AF905
:104AA000FBF70EFB07B000BD080100200004004822
:104AB00010E000E020ED00E070B58AB08024A40290
:104AC00001212000FFF725FA01212000FFF735FA28
:104AD000E120400203900024049405940694089475
:104AE0000C2007909026F605012202213000FFF7E6
:104AF00028F8012203213000FFF723F8042000905A
:104B00006846022101710321417184710125C5713B
:104B100069463000FEF7D4FF082000906946300057
:104B2000FEF7CEFF0B4E03A9300000F07FFA02A87B
:104B30001C2101704470857000F016FA01213000CC
:104B400000F0C2FA01220449300000F0D3FA0AB0A2
:104B500070BD00BF004400400501050070B584B081
:104B60000E0072B63078AA2844D17078012841D15D
:104B7000002500206C46315C2154401C0B28FAD3E0
:104B80005D48057001220A216846FEF7FFFFA17A01
:104B900081422FD120795949098888422AD1607AE7
:104BA0005749A278002A04D1002823D10120087097
:104BB0001CE000281ED00D705248E1780902A2784E
:104BC00089180180008821790D225143401A4E49ED
:104BD0000880627A4D4880214900082A02D1FEF7F8
:104BE000AEFF03E0042A01D1FEF7A7FF0B2130003E
:104BF00000F0AEFA7FBD464800784649002804D14F
:104C0000487A022811D1802010E001280FD1487A7B
:104C1000012808D0022804D0042804D0082802D093
:104C200003E0302002E0202000E0002008727047FE
:104C300010B584B0002472B6FFF7DDFF6846AA21E4
:104C400001700721417033498A788270CA78C27036
:104C50002A4A128802714471C4800A7A0272497A1F
:104C600041728472817A025D89188172641C0A2CF7
:104C7000F8DB62B60B226946022000F06BFA1FBD1A
:104C800038B500249020C00523490A88042A0A88E0
:104C90000CDA521C0A800221FEF74FFF184D2878CB
:104CA000012810D1FFF7C4FF2C7031BD042A09DBA5
:104CB0000A880A2A06DA0A88521C0A800221FEF7AC
:104CC0003EFF31BD0C8031BD14493C20085C0B28EF
:104CD00000DA704780B50220FFF740FF01BD1048A1
:104CE0000178002907D04168491C4160062902D398
:104CF0000021017041607047200100201A0100204E
:104D000023010020160100201801002000040048A3
:104D100022010020FC00002014010020740000206B
:104D2000B000002080B500F01AF800F02AF8FFF774
:104D3000A7FFFFF7D4FF01BD80B551490A78501E87
:104D40008041C00F08704F480978002903D08021A6
:104D5000FEF7F3FE01BD8021FEF7F1FE01BD80B537
:104D600080219020C005FEF7E0FE474908704748C3
:104D7000474909781F2901DB012100E0002101706A
:104D800001BDF8B510219020C005FEF7CEFE04004D
:104D900040219020C005FEF7C8FEA10044000C434E
:104DA00080219020C005FEF7C0FE2043C143480784
:104DB000400F38490870012737490F70354800788F
:104DC000002636490978884201D0334A16703349A3
:104DD000087031480078012803D1401C2E49087022
:104DE00001E02D490E702E4C66722E4800780A287C
:104DF00045DB0020274909782B4A1170002922D071
:104E000010219020C005FEF790FE05004021902063
:104E1000C005FEF78AFEA90045000D4380219020C1
:104E2000C005FEF782FE2843C1434807400F1949D9
:104E3000087019490E701748007818490870012049
:104E4000184A167066721149095C01290CD117497C
:104E5000098808181649401816490880A0700004EF
:104E6000000EE0706772F1BD401CC0B20028C1D0D6
:104E7000607A002803D1B520A0700320E070F1BD56
:104E80001E01002000040048250100202701002009
:104E90002601002029010020240100202A010020F1
:104EA000FC00002028010020210100201A01002020
:104EB000B60300001601002010B50200084B0800E0
:104EC0000324A04318188907090F03680F248C4096
:104ED000A343036003688A401A43026010BD0000C8
:104EE0000800014030B50168CC431D498279002A91
:104EF00025D00A4613681C40146053680468A34315
:104F0000536003795B181C68056825431D6093682E
:104F10000468A3439360D3680468A343D3604379D0
:104F20000468102B07D191680C439460D168006825
:104F30000843D06030BD5B181868044303E0007973
:104F40004318186804401C6030BD01000020054A69
:104F50001268114000D00120704702490860704774
:104F6000000401401404014070B501000C781F22B8
:104F700001238878002815D00D4D20000326B0436A
:104F800028180568A407E40EFF26A640B5434E780E
:104F9000B607360EA6402E430660087802409340BE
:104FA000044802E0224093400348036070BD0000C3
:104FB00000E400E000E100E080E100E030B585B011
:104FC00001210120FEF7B9FF68460F21017000247E
:104FD000447001218170FFF7C7FF11480068114933
:104FE000FEF7D7FE80B2451E0F48029001A804606C
:104FF00004818024E40501A9200000F0BFF801220B
:10500000A9B2200000F0E6F801220121200000F002
:1050100001F90121200000F0E0F805B030BD00BF2B
:1050200038000020808D5B0080F0FA02F0B589B076
:1050300004000D0020680121884320606068294930
:105040000140A868084360602068274901406868FB
:105050000843E9680143286908432060A0682349A0
:10506000014068690843A06002A8FEF7F1FE1C48F1
:10507000844201D1089800E0049800902D688026B1
:10508000360220683040009807D040000190290087
:10509000FEF77FFE0700019804E02900FEF779FE85
:1050A000070000982900FEF774FE6808814200D3CB
:1050B0007F1C2068064004D00D48384039074F0F48
:1050C0000743A78109B0F0BD0029016803D0012280
:1050D0000A4302607047012291430160704700005B
:1050E00000380140FFCFFFFFF3E9FFFFFFFCFFFFA8
:1050F000F0FF000010B50B041B0E01248C40022BA6
:1051000001D1001D02E0032B00D10830002A016804
:1051100002D00C43046010BDA143016010BDFEE746
:10512000130030B414001500103902D310393CC0FC
:10513000FCD2490700D30CC000D504C0890002D3BB
:105140000280801C002900D5027030BC704700002E
:105150000022E5E710B502280AD1074C23000C33E2
:1051600006E020880006FCD508781880491C521EED
:10517000D2B2002AF5D110BD1C44004010B50388FE
:105180001B4A904206D08024E405A04202D0194C6C
:10519000A04203D11B4C1C404B882343164CA04219
:1051A00003D0194C1C400B89234303804B68C36216
:1051B0000B880385904208D0104A904205D0104ACF
:1051C000904202D0114A904201D1897A0186012190
:1051D000818210BD0185828270470029018802D03A
:1051E00001220A4301E00A4A0A4002807047000097
:1051F000002C01400004004000100040004001402D
:10520000004401408FFF0000FFFC00000048014007
:10521000FEFF0000002A828902D01143818170477D
:105220008A4382817047FEE7F8B5040008255A4E8C
:105230002F03200604D539003000FEF77EFC03E082
:1052400039003000FEF77BFC6400B9083000FEF73F
:1052500076FCB9083000FEF770FC6D1EE9D1F1BD97
:10526000F8B5050000244C4E8027BF0139003000FE
:10527000FEF765FCB9003000FEF761FC79083000EC
:10528000FEF75DFC2800FFF7CFFF0620FEF798FC35
:1052900039003000FEF753FC0120FEF791FC390085
:1052A0003000FEF74AFC39003000FEF748FC1025BC
:1052B000640039003000FEF742FC39003000FEF790
:1052C0003CFC79003000FEF730FC002800D0641C64
:1052D0006D1EEDD179083000FEF72FFC2004000D83
:1052E000F2BDF8B504000F002C4D2878FFF7B8FF89
:1052F00006006878FFF7B4FF268038800120F2BDF1
:1053000070B504008026264D31012348FEF70DFCC0
:1053100000282FD1002C06D029001231280010308F
:10532000FFF7DFFF1CE02900123128001030FFF7E3
:10533000D8FF002814D01B480068A8621A480068EB
:10534000E8621A4800682863194800684005400D63
:105350006863298A2A6B891A2982698A081A6882ED
:10536000287D304212D1C0202875288AA881688AF9
:10537000E8810BE0287D304203D04006400E2875BE
:1053800004E00020E8600B4828826882287D0640FF
:10539000300070BD000000000004004870000020D4
:1053A000C000002000400008004400080048000839
:1053B000004C0008FFFF000082B033480168012262
:1053C0000A4302604168314A0A4042600168304A3B
:1053D0000A40026001682F4A0A4002602E49426872
:1053E0000A404260C26A0F239A43C262026B2B4B8F
:1053F00013400363426B01239A434263002282609D
:105400000192009202681B04134303600268802328
:105410009B021A400092019A521C0192009A002AA3
:1054200004D1019AA023DB009A42EFD102689203D3
:10543000D30F0093009A012A23D11122184B1A602E
:10544000426842604268426042681140416041687F
:10545000882252030A4342600168802252040A43B0
:10546000026001688901FCD54168032291434160D3
:10547000416802220A43426041680C220A40082A1D
:10548000FAD102B070470000001002400CB8FFF8DB
:10549000FFFFF6FEFFFFFBFFFFFFC0FFACFEFFFFBD
:1054A000002002407047FEE7704729480178491CF8
:1054B000017028480188C90700D4704780B5018869
:1054C000254A0A4002802549C161FFF735FC24487E
:1054D00024490978002902D10178491C00E0002103
:1054E000017001BD2048018801220A4302807047F3
:1054F00010B51E491E483C22825C3C2A07DA898886
:105500003C22825C531C3C240355815410BD888886
:1055100088800868174A02430A6010BD38B58024A5
:1055200024012000FFF711FD00280FD0124D28782C
:10553000022806DB0020FFF7E3FEFFF723F8002038
:1055400000E0401C28702000FFF707FD31BD00007F
:105550002B01002010000040FEFF000020A10700EA
:1055600026010020250100201001002020440040D9
:1055700074000020FFFF00002C01002020217E236A
:105580002425262728292A2B2C2D2E2F3031323363
:105590003435363738393A3B3C3D3E3F4041424353
:1055A0004445464748494A4B4C4D4E4F5051525343
:1055B0005455565758595A5B7E5D5E5F6061626311
:1055C0006465666768696A6B6C6D6E6F7071727323
:1055D0007475767778797A7B7C7D7E0030B4012192
:1055E0000268001D002A0FD00368C3184468083001
:1055F0000C4202D04D466D1E64191D6825601B1DAE
:10560000241D121FECD0F8E730BC704710B50749D5
:1056100079441831064C7C44163404E0081D0A68AD
:10562000891888470100A142F8D110BD0800000088
:10563000280000002FE5FFFFBC00000074000020E0
:105640000000000099FFFFFF740000009C000000B4
:10565000000000200000000000F00BF8002801D03E
:10566000FFF7D4FF0020C046C046FFF7A9F800F0BE
:1056700002F80120704780B500F002F801BDFEE796
:105680000746384600F002F8FBE7FEE780B5C04663
:10569000C046024A11001820ABBEFBE726000200FC
:1056A0000148804701480047B9530008B156000837
:1056B000C046C046C046C046FFF7CEFFFEE7FEE745
:1056C000FEE7FEE7FEE7FEE7FEE7FEE7FEE7FEE7B2
:1056D000FEE7FEE7FEE7FEE7FEE7FEE7FEE7FEE7A2
:1056E000FEE7FEE7FEE7000000000000000000000B
:1056F00000000000000000000000000000000000AA
:1057000001000000B60300000000000000000000DF
:105710000000000000000000010203040607080961
:10572000006CDC020400000000000000000000002B
:105730000000000000000000000000000000000069
:105740000000FFFF00000000010203040102030447
:0C575000060708097C550008D0900000F6
:04000005080056B1E8
:00000001FF
